:020000040800F2
:10000000E8FE0020A10100084F1A0008611900084D
:100010004D1A0008B5020008252400080000000061
:10002000000000000000000000000000051D0008A6
:10003000A704000800000000511A0008071D00086E
:10004000BB010008BB010008BB010008BB010008A0
:10005000BB010008BB010008BB010008BB01000890
:10006000BB010008BB010008BB010008BB01000880
:10007000BB010008BB010008BB010008BB01000870
:10008000BB010008BB010008BB010008BB01000860
:10009000BB010008BB010008BB010008BB01000850
:1000A000BB010008BB010008BB010008BB01000840
:1000B000BB010008BB010008BB010008BB01000830
:1000C000BB010008BB010008BB010008BB01000820
:1000D000BB010008BB01000819240008BB0100088F
:1000E000BB010008BB010008BB010008BB01000800
:1000F000BB010008BB010008BB010008BB010008F0
:10010000BB010008BB010008BB010008BB010008DF
:10011000BB010008BB010008BB010008BB010008CF
:10012000BB010008BB010008BB010008BB010008BF
:10013000BB010008BB010008BB010008BB010008AF
:10014000BB010008BB010008BB010008BB0100089F
:10015000BB010008BB010008BB010008BB0100088F
:10016000BB010008BB010008BB010008BB0100087F
:10017000BB010008BB010008BB0100080000000033
:10018000BB010008BB010008DFF810D000F080F8C8
:100190000048004799280008AFF30080E8FE0020DF
:1001A0000648804706480047FEE7FEE7FEE7FEE711
:1001B000FEE7FEE7FEE7FEE7FEE7FEE77D1D00083F
:1001C000890100082DE9F05F0546002092469B4614
:1001D00088460646814640241BE02846414647465D
:1001E000224600F044F853465A46C01A914110D3B3
:1001F00011461846224600F02BF82D1A67EB01082D
:100200004F4622460120002100F022F817EB00099A
:100210004E41201EA4F10104DFDC484631462A4647
:10022000434600F000B830BCBDE8C09FD2B201E048
:1002300000F8012B491EFBD270470022F6E710B5EB
:1002400013460A4604461946FFF7F0FF204610BD44
:10025000202A04DB203A00FA02F100207047914086
:10026000C2F1200320FA03F3194390407047202A7B
:1002700004DB203A21FA02F00021704721FA02F350
:10028000D040C2F120029140084319467047000057
:10029000064C074D06E0E06840F0010394E80700D3
:1002A00098471034AC42F6D3FFF772FF902900084C
:1002B000B0290008FEE700002DE9F04F87B01421B7
:1002C0006846FFF7BAFF7148C16C41F00101C16493
:1002D000C16C01F001010591C16C41F00201C164E2
:1002E000C16C01F002010591C16C41F00401C164CF
:1002F000C16C01F004010591C16C41F00801C164B9
:10030000C16C01F008010591C16C41F08001C1642C
:10031000C06C4FF6D33700F080004FF0904A059044
:1003200000223946504600F02EFADFF864B14DF64F
:10033000C75600223146584600F025FA4FF6EE74B3
:1003400000222146534800F01EFADFF84C810022BB
:100350000421404600F017FADFF840910022032103
:10036000484600F010FA009401240025CDE901452B
:1003700069464848039400F0F7F804208DE83100FE
:1003800069464046039400F0EFF803208DE8310001
:1003900069464846039400F0E7F80097CDE9014527
:1003A00069465046039400F0DFF80096CDE9014518
:1003B00069465846039400F0D7F8012214032146F9
:1003C000344800F0E0F901229102324800F0DBF9F4
:1003D000012251032F4800F0D6F901229503294646
:1003E000504600F0D0F901221146484600F0CBF902
:1003F00001221021504600F0C6F90122114658464C
:1004000000F0C1F901220221224800F0BCF90122CA
:100410001102584600F0B7F90122560231461D4834
:1004200000F0B1F901222146584600F0ACF9012252
:100430008021504600F0A7F901223146504600F0D5
:10044000A2F901220421584600F09DF90122D103AE
:10045000584600F098F901222946584600F093F9D1
:10046000642000F06FF800250024E1B2E8B2002219
:1004700001F08CFC641C082CF7DB322000F062F8E1
:100480006D1C082DF0DB07B000F00AB80010024028
:100490000004004800080048000C0048001C004808
:1004A00030BCBDE8C08F704772B6FEE710B590F85B
:1004B00025100022022905D00421C16380F82420E0
:1004C000012010BD01680B6823F00E030B6001686A
:1004D0000B6823F001030B6090F84410046C01F0EA
:1004E0001C03012101FA03F3636080F8251080F8F2
:1004F0002420104610BD10B590F8251000240229C4
:1005000003D00421C16301241AE001680A6822F0C3
:100510000E020A6001680A6822F001020A6090F87F
:100520004410036C01F01C02012101FA02F25A602E
:1005300080F82510002180F82410816B01B18847D4
:10054000204610BD70B5044600F022F90546601C37
:1005500002D004480078044400F01AF9401BA0427D
:10056000FAD370BD080000202DE9F04FDFF8EC91C0
:1005700000220127A9F1040B85B003254FF00F0CD1
:1005800009F1040AABF1040EE0E000BF07FA02F43F
:1005900016EA04037ED00E7906F00306012E01D080
:1005A000022E1FD186680096560005FA06F80496BA
:1005B000009E26EA08060096D1F80C80049E08FAF0
:1005C00006F8009E48EA0608C0F80880466891F8D8
:1005D0000480A643C8F3001808FA02F848EA06089F
:1005E000C0F80480D1F804806FEA0806B6070AD183
:1005F000C66AA643C8F3C00494403443C4620C796D
:10060000E443A4070AD0C4684FEA420805FA08F692
:10061000B4438E6806FA08F62643C6600C7904F0E7
:100620000304022C11D1D40800EB84060296D6F8FC
:1006300020805407E60E0CFA06F428EA04080C6938
:10064000B440029E44EA08043462046856000296EC
:1006500005FA06F6B4430E7906F00308029E08FA7E
:1006600006F848EA0408C0F800804C6814F4403FDB
:100670006BD03B4C266E46F001062666246E22F0B7
:10068000030604F001040094364C34440294A46838
:10069000960700E059E04FEA16780CFA08F6B443E2
:1006A000B0F1904F04D0304EB04203D101261BE090
:1006B000002619E02D4EB04201D1022614E02C4E46
:1006C000B04201D103260FE02A4EB04201D10426E8
:1006D0000AE0294EB04201D1052605E0274EB0427E
:1006E00001D1062600E0072606FA08F62643029CFA
:1006F000A660D9F800404E46D1F804809C435FEADA
:10070000C82800D51C433460DAF800405646D1F8BA
:1007100004809C435FEA882800D51C433460DBF8E2
:1007200000405E46D1F804809C435FEA883800D5DB
:100730001C433460DEF800407646D1F804809C43C8
:100740005FEAC83800D51C433460521C0B681E4653
:10075000D3407FF41BAF05B000F012B8080401408D
:10076000001002400000014000040048000800485A
:10077000000C004800100048001400480018004811
:1007800030BCBDE8C08F0AB181617047816270479B
:100790000148806870470000080000200248816816
:1007A000027811448160704708000020094810B5A4
:1007B0000168002441F480710160032000F072F8A8
:1007C000002000F009F808B1012401E000F026F84B
:1007D000204610BD0020024070B50E4E0546002494
:1007E000307898B14FF47A71B1FBF0F00A4909689A
:1007F000B1FBF0F000F020FE40B9102D06D200222F
:100800002946501E00F02EF8756000E001242046B5
:1008100070BD00000800002014000020094808B541
:10082000016E41F001010166016E01F001010091CC
:10083000816D41F080518165806D00F080500090A5
:1008400008BD000000100240002809DB00F01F0274
:10085000012191404009800000F1E020C0F8001122
:1008600070470000F0B40E4B1B680C46C3F3022324
:10087000C3F10705042D00D90425191D072901D24C
:10088000002300E0DB1E012606FA05F1491E214087
:1008900099409E40761E16403143F0BC01F0DCBF0B
:1008A0000CED00E0064900F0070208684FF6FF0370
:1008B000184040EA0220034A1043086070470000D5
:1008C0000CED00E00000FA051649B0F5007F08685D
:1008D000C0F3412009D0022805D0086820F4C06088
:1008E00040F480600860002070470128FBD0086851
:1008F00020F4C06040F4007008600B4832220068A9
:1009000050430A4AB0FBF2F0401C00E0401E4A6926
:10091000520501D50028F9D148694005E3D50320E7
:1009200070470000007000401400002040420F009B
:100930000248006800F4C06070470000007000408A
:100940002DE9F84F044600270088E54D3E46010595
:1009500004F1200B1DD5606E78B1B0F5800F11D079
:10096000B0F5000F04D0B0F5400F22D001270FE002
:10097000E86840F48030E8601BE00021201D01F0B1
:1009800069F803E00021584601F0FAF8070010D09A
:100990003E462088C00426D5A06EC0B1B0F1807F4D
:1009A0001AD0B0F1007F0DD0B0F1407F19D00127EF
:1009B00018E0D5F88800616E20F440000843C5F8BF
:1009C0008800E6E7E86840F48030E86009E000214C
:1009D000201D01F03FF803E00021584601F0D0F857
:1009E0000746F7B13E46206880033AD5A86D4FF020
:1009F0000008C00009D4A86D40F08050A865A86D1B
:100A00004FF0010800F080500090DFF8D8A2DAF82B
:100A1000001041F48071CAF80010FFF7B9FE81465A
:100A200010E0D5F88800A16E20F040700843C5F8AA
:100A30008800D8E7FFF7ACFEA0EB0900022801D937
:100A4000032705E0DAF80000C005F3D5002F7CD0BD
:100A50004FEA0706B8F1000F03D0A86D20F08050D0
:100A6000A8652078C00707D0D5F88800A16B20F0D2
:100A700003000843C5F888002078800707D5D5F81B
:100A80008800E16B20F00C000843C5F8880020784E
:100A9000400707D5D5F88800216C20F030000843C6
:100AA000C5F888002078000707D5D5F88800616C64
:100AB00020F0C0000843C5F888002078C00607D59C
:100AC000D5F88800A16C20F440700843C5F8880070
:100AD0002078800607D5D5F88800E16C20F44060C6
:100AE0000843C5F888002088800507D5D5F8880018
:100AF000E16D20F440200843C5F8880020884005B7
:100B000007D5D5F88800216E20F440100843C5F8B9
:100B100088002078400607D5D5F88800216D20F49C
:100B200040500843C5F888002078000607D5D5F85E
:100B30008800616D20F440400843C5F88800208893
:100B4000C00509D5D5F8880000E01CE0A16D20F4AF
:100B500040300843C5F8880020884FF000678004C3
:100B60004FF080684FD5D5F88800E16E20F04060E6
:100B70000843C5F88800E06EB8423CD1E86840F40C
:100B80008010E8603FE0D5F8900010F4407015D078
:100B9000D4F88410814211D0D5F89000D5F8901087
:100BA00020F4407041F48031C5F89010D5F89010D1
:100BB00021F48031C5F89010C5F89000C00710D01E
:100BC000FFF7E6FD074641F2883906E0FFF7E0FD52
:100BD000C11B494501D903263CE7D5F890008007A1
:100BE000F4D5D5F89000D4F8841020F44070084370
:100BF000C5F890002EE7404505D10121201D00F0E9
:100C000029FF00B106462068000317D5D5F88800F3
:100C1000216F20F040600843C5F88800206FB8427B
:100C200004D1E86840F48010E86007E0404505D151
:100C30000121201D00F00EFF00B106462068400390
:100C400017D5D5F88800616F20F040600843C5F8DB
:100C50008800606FB84204D1E86840F48010E86012
:100C600007E0404505D10121201D00F0F3FE00B151
:100C70000646208840041AD5D5F88800A16F20F0D8
:100C800040500843C5F88800A06FB0F1805F03D0E2
:100C9000B0F1005F05D00AE00221201D00F0DAFE6D
:100CA00003E00221584600F06BFF00B106462088A1
:100CB000000407D5D5F88800E16F20F08040084394
:100CC000C5F888002068C00307D555F8880FD4F808
:100CD000801020F0004008432860304600F004B83F
:100CE000001002400070004018BCBDE8E08F00001A
:100CF0002DE9F0470F4605006BD0494E306800F0F3
:100D00000700B84209D2306820F00700384330604D
:100D1000306800F00700B8425BD12878414C80076A
:100D20000AD5A868A16801F0F001884204D9A16839
:100D300021F0F0010143A1602878C0072CD0686839
:100D4000032811D0022812D0216898B14905002942
:100D50003FDAA16821F003010143A160FFF718FD0C
:100D6000804641F2883910E021688901EFE7216867
:100D70008903ECE78907EAE7FFF70AFDA0EB080122
:100D8000494502D90320BDE8F087A068696800F0F2
:100D90000C00B0EB810FEFD1287880070AD5A86846
:100DA000A16801F0F001884204D2A16821F0F001AD
:100DB0000143A160306800F00700B8420BD93068E9
:100DC00020F0070038433060306800F00700B84278
:100DD00001D00120D7E72878400705D5A068E96849
:100DE00020F4E0600843A0602878000706D5A068DA
:100DF000296920F4605040EAC100A06000F03EF88C
:100E0000A168094AC1F30311515C01F01F01C840F8
:100E10000649086006480068BDE8F047FFF7DCBCFB
:100E20000020024000100240482900081400002061
:100E30000C0000200548064900688968054AC1F38E
:100E40000221515C01F01F01C840704714000020CE
:100E50000010024088290008054806490068896892
:100E6000054AC1F3C221515C01F01F01C84070471F
:100E700014000020001002408829000870B52549A0
:100E8000002318468A68CC6812F00C0204F00306AE
:100E9000214C4FEA640509D00C2A05D0042A32D02F
:100EA000082A00D1284670BD012E10D10B681B07FF
:100EB00004D4D1F89430C3F3032302E00B68C3F3E6
:100EC0000313164E56F82330DAB10C2AEBD1C8685A
:100ED00000F00300022818D0032818D01846CA686A
:100EE000CB68C2F30212C3F306234343521CB3FB85
:100EF000F2F2C868C0F34160401C4000B2FBF0F061
:100F000070BD184670BD204670BD2046E7E72846F4
:100F1000E5E70000001002400024F4005829000812
:100F20002DE9F84304006FD0FD4DA86800F00C06D1
:100F3000E86800F003072078C00664D576B10C2E6F
:100F400001D1012F0AD0A069002828687AD040F08A
:100F500001002860FFF71CFC80465DE028688007E0
:100F600002D5A0690028DED0216A2868000703D5D1
:100F7000286800F0F00004E0D5F89400F02202EABE
:100F80001010814216D9084600F07EFE00283BD1A1
:100F9000286840F0080028602868216A20F0F000E6
:100FA000084328606868E16920F47F4040EA012036
:100FB000686016E0286840F0080028602868216A08
:100FC00020F0F000084328606868E16920F47F4061
:100FD00040EA0120686026B9206A00F055FE00282A
:100FE000D5D1FFF74BFFA968CE4AC1F30311515C7D
:100FF00001F01F01C840CC490860CC480068FFF7E9
:10100000EBFB00287ED12EE0CAE000BFFFF7C0FB5B
:10101000A0EB0800022876D828688007F6D5286853
:1010200040F0080028602868216A20F0F00008439A
:1010300028606868E16920F47F4040EA0120686028
:1010400011E0FFE720F001002860FFF7A1FB8046D8
:1010500006E000BFFFF79CFBA0EB08000228DAD8EF
:1010600028688007F6D42078C00740D0082E18D012
:101070000C2E01D1032F14D06068B0F5803F17D03B
:10108000B0F5A02F286817D020F480302860286899
:1010900020F4802028606068E0B1FFF779FB80468B
:1010A00014E02868800322D56068002878D01EE00C
:1010B000286840F48030EDE740F480202860F7E7AE
:1010C000FFF766FBA0EB08006428A4D8286880031B
:1010D000F6D50CE0FFF75CFB804605E0FFF758FB18
:1010E000A0EB0800642896D828688003F6D42078FE
:1010F00080073BD5042E11D00C2E01D1022F0DD02C
:10110000E06801E086E1D6E0002828681ED040F4BF
:1011100080702860FFF73CFB07460CE0286840051C
:101120000CD5E0680028C1D008E000BFFFF730FB15
:10113000C01B022893D828684005F7D56868217C31
:1011400020F0F85040EA016068600FE020F4807001
:101150002860FFF71DFB074605E000BFFFF718FBFF
:10116000C01B0228B1D828684005F7D420780007B2
:1011700029D560690028D5F8940012D040F001000C
:10118000C5F89400FFF704FB074604E0FFF700FBF7
:10119000C01B022899D8D5F894008007F6D512E034
:1011A00000E120F00100C5F89400FFF7F1FA0746CE
:1011B00005E000BFFFF7ECFAC01B02287BD8D5F88A
:1011C00094008007F6D42078400766D5A86D0027E4
:1011D000C00008D4A86D40F08050A865A86D012714
:1011E00000F08050009052480168C90512D401688F
:1011F000814641F480710160FFF7CAFA804605E03C
:10120000FFF7C6FAA0EB0800022854D8D9F800006E
:10121000C005F5D5A068012816D00528D5F890009E
:1012200017D020F00100C5F89000D5F8900020F00C
:10123000040000BFC5F89000A06841F28839C0B131
:10124000FFF7A6FA80460FE0D5F8900040F00100C5
:10125000F0E740F00400C5F89000F5E7FFF798FAD2
:10126000A0EB0801494526D8D5F890008007F5D5B0
:101270000EE0FFF78DFA804606E000BFFFF788FA20
:10128000A0EB0801494516D8D5F890008007F5D4A1
:101290001FB1A86D20F08050A865A06AF0B30228A5
:1012A0000AD00C2E7ED0286820F080702860FFF7CE
:1012B0006FFA0446B0E0ACE0E868E26A00F00301CF
:1012C000914229D1216B00F070020901103991423D
:1012D00022D1626B00F4FE41B1EB022F1CD1A26B54
:1012E00000F40031072A01D0012200E000229142DF
:1012F00012D1A18F00F4C00249084905A1F50011DF
:10130000914209D194F8401000F0C06049084906A4
:10131000A1F1007181425ED00C2E0BE072E0000062
:101320000010024048290008140000200C00002092
:101330000070004079D02868400176D42868C00049
:1013400073D4286820F080702860FFF721FA0646E1
:1013500005E000BFFFF71CFA801B022859D8286857
:101360008001F7D4D4E90B016FF00F0202EB0111F9
:101370000843A18F5204490802EB4151626B41EAD4
:101380000221084394F840104FF07E42490802EBD6
:1013900041610843A16B090940EA4140E968244AD8
:1013A000114000E041E00843E860286840F08070A8
:1013B0002860E86840F08070E860FFF7E9F90446CB
:1013C00005E000BFFFF7E4F9001B022821D82868D8
:1013D0008001F7D527E02868800124D4286840F0F0
:1013E00080702860E86840F08070E860FFF7D0F90E
:1013F000044604E0FFF7CCF9001B022809D828684E
:101400008001F7D50FE000BFFFF7C2F9001B0228EB
:1014100002D90320BDE8F88328688001F4D4E86885
:1014200004490840E8600020F4E70120F2E70000EA
:101430008C809DF9FCFFEEFE10B5401EB0F1807F60
:1014400001D3012010BD4FF0E02460610F2160172F
:1014500001F002FA0020A06107202061002010BDE9
:101460007047704770470146806FC96F08437047E7
:101470002DE9F04102680446D0691168936840F68E
:101480000F0528424FF0000505D186067ED58E0651
:101490007CD5616E1BE1994F03F001060F40374385
:1014A00074D0C70709D0CF0507D501271762D4F834
:1014B000802042F00102C4F8802082070AD5DA07B2
:1014C00008D0276802223A62D4F8802042F0040251
:1014D000C4F8802042070AD5DA0708D0236804221E
:1014E0001A62D4F8802042F00202C4F88020020779
:1014F0000CD501F02002324308D0236808221A627A
:10150000D4F8802042F00802C4F8802002050BD5F0
:101510004A0109D523684FF400621A62D4F880208A
:1015200042F02002C4F88020D4F88020002A35D070
:10153000800605D5880603D5616E09B12046884727
:10154000D4F8800021688968490602D410F0280F79
:1015500026D0204600F0B8FC2068806840061AD5E6
:101560002068083050E8001F21F0400140E80012D8
:10157000002AF5D1206F70B161498163206FFEF7B9
:10158000BAFF00280AD0206F816B01E00EE02046F0
:10159000BDE8F04108472046FFF764FFBDE8F08151
:1015A0002046FFF75FFFC4F88050F7E7276E20263C
:1015B000012F7BD1C70679D5CF0677D510201062D1
:1015C00020688068400641D5216F086840680004A3
:1015D000000CE3D0B4F858208242DFD9A4F85A00B6
:1015E0000868006880062AD4206850E8001F21F4AB
:1015F000807140E80012002AF6D12068083050E8D7
:10160000001F21F0010140E80012002AF5D12068F6
:10161000083050E8001F21F0400140E80012002A85
:10162000F5D1E6672566216851E8000F20F010002B
:1016300041E80002002AF6D1206FFEF737FFB4F828
:101640005800B4F85A10401A81B22AE0B4F8580091
:10165000B4F85A10401A81B2B4F85A0000289DD04C
:1016600000299BD0226852E8000F20F4907042E8D5
:101670000003002BF6D12068083050E8002F22F03C
:10168000010240E80023002BF5D1E6672566656678
:10169000226852E8000F20F0100042E80003002BFF
:1016A000F6D12046FFF7DCFE78E7FFE7C70209D551
:1016B0005B0207D54FF4801010622046BDE8F04170
:1016C000FFF7CFBE020606D50A0604D5A16E002993
:1016D0007FF45DAF62E74006E6D54806E4D52046D4
:1016E000026852E8001F21F0400142E80013002B7D
:1016F000F6D18667856600F032F94FE720010004D5
:10170000B51E000810B5040002D0A06F10B107E0AC
:10171000012010BD002084F87400204600F026F857
:101720002420A0672068016821F0010101602046A3
:1017300000F08EFC0128ECD0606A10B1204600F069
:1017400027FB2068416821F490414160206881684E
:1017500021F02A0181602068016841F001010160E7
:101760002046BDE8104000F077BB000030B5A9B0BE
:101770000446142122A8FEF760FD88216846FEF782
:101780005CFD1A49206888422ED1002502240F955D
:1017900068460094FFF7D4F808B1FEF785FE1448B8
:1017A000816D41F400318165816D01F40031279133
:1017B000C16C41F00101C164C06C22A900F00100BC
:1017C00027900C2081E831000320259007202690E7
:1017D0004FF09040FEF7C8FE002211462620FFF78A
:1017E00041F82620FFF730F829B030BD0044004012
:1017F0000010024030B4C36F202B20D1E1B1DAB128
:1018000090F87430012B1AD0012380F87430002333
:1018100003660C4C0368A3420BD05B681B0208D51F
:10182000046854E8003F43F0806344E80035002D2D
:10183000F6D130BC00F030BD012030BC7047022032
:10184000FBE70000008000402DE9F05F3E4C3F4880
:10185000A188E2784254491C89B2A180014411F860
:10186000012C0A2A67D111F8022C0D2A63D1804677
:1018700011F8030C4FF0010B4FF0000A232844D15C
:10188000DFF8CCE0A4F806A084F800B0E088814638
:1018900086010EEB801500BF84F801A02178C800F6
:1018A00006EBC103083862789F1800EB020C47442E
:1018B000521C17F8087CD2B205F80C706270072A27
:1018C000F1D9491CC8B220700828E5D909F10100F6
:1018D00080B2E080B0F5FA7FD6D31D488438FFF798
:1018E000C2FD2128F9D05546A4F804A047F60351BB
:1018F0001648FEF7A2FC08EB050010F8011C0A29A7
:1019000019D110F8020C0D2815D1A18808EB01009F
:1019100010F8030C40280ED184F802B00C4884382B
:10192000FFF7A1FD2128F9D0A4F804A047F6035140
:101930000648FEF782FC00F00DB803490448012276
:10194000C91C8438FFF756BF000000201C0000208F
:10195000E47D002030BCBDE8C05FFFF7EEBF7047FC
:10196000FEE700002DE9F04387B014216846FEF73A
:1019700064FC2448C16C41F00401C164C16C01F0F5
:1019800004010591C16C41F08001C164C16C01F09A
:1019900080010591C16C41F00101C164C16C01F08D
:1019A00001010591C16C41F00201C164C06CDFF816
:1019B000588000F002004FF4587405900022214630
:1019C0004046FEF7E0FEDFF844904FF480770022B7
:1019D00039464846FEF7D7FE009401AA01240025A7
:1019E000022682E8700069464046FEF7BDFD01AA66
:1019F000009782E8700069464846FEF7B5FD07B0DB
:101A0000BDE8F083001002400008004800040048D0
:101A10000C4810B50A4901600B4941600021816002
:101A20000C22C160C0E904128161C161016241629E
:101A3000FFF768FE002801D072B6FEE710BD000077
:101A400000440040607D002080841E00FEE7FEE729
:101A5000704700002DE9F041444C05468846E06897
:101A60000026810728680DD0E16801F0030181425A
:101A700016D1A8B1E0686968C0F30210401C884222
:101A80000ED120E0012804D0022805D0032807D178
:101A900008E02168890701E021684905002907DB82
:101AA00001265FE02168890302D421684903F5E734
:101AB000E1686A686FF00F0321F0730103EB021213
:101AC00011430143E160206820F080602060FEF750
:101AD0005FFE074605E000BFFEF75AFEC01B022866
:101AE00037D820680001F7D4B8F1000F18D0B8F14A
:101AF000010F1ED0287D4FF07E41400801EB406071
:101B0000A96840EA01202169194A1140084320616F
:101B1000206840F080602060FEF73AFE07461AE039
:101B2000A868E9680002090940EA41402169114AB0
:101B3000EBE7288A1049400801EB4050A96840EAC9
:101B4000012021690D4AE0E7FEF722FEC01B0228B2
:101B500001D9032606E020680001F5D52069A969AE
:101B6000084320613046BDE8F081000000100240CB
:101B7000FF80FFF9FF80FDFF0000E0FFFF809FFF77
:101B80002DE9F0413D4C06468846E0680025810776
:101B900030680DD0E16801F00301814216D1A8B18F
:101BA000E0687168C0F30210401C88420ED120E04A
:101BB000012804D0022805D0032807D108E02168B5
:101BC000890701E021684905002907DB012551E06B
:101BD0002168890302D421684903F5E7E168726846
:101BE0006FF00F0321F0730103EB02121143014365
:101BF000E160206820F080502060FEF7C9FD0746B4
:101C000005E000BFFEF7C4FDC01B022829D82068EC
:101C10008000F7D4B8F1000F15D0307C4FF07E4132
:101C2000400801EB4060B16840EA01206169144A54
:101C3000114008436061206840F080502060FEF74A
:101C4000A7FD07460FE0B068F1680002090940EA05
:101C5000414061690B4AEBE7FEF79AFDC01B022881
:101C600001D9032506E020688000F5D56069716917
:101C7000084360612846BDE8F08100000010024082
:101C8000FF80FFF9FF80FDFFF8B51C4D06460024DC
:101C9000A86DC00002D5FEF74BFE0DE0A86D40F028
:101CA0008050A865A86D00F080500090FEF740FEBF
:101CB000A96D21F08051A965B0F5007F04D0802E78
:101CC00007D94FF003040AE0802E08D9A02E01D8CE
:101CD00004E001D1022402E0702E00D10124084862
:101CE000016821F0070121430160006800F007004E
:101CF000A04201D00120F8BD0020F8BD0010024034
:101D0000002002407047FEF749BD00B597B044215E
:101D10006846FEF792FA142111A8FEF78EFA4FF4E6
:101D20000070FEF7D1FD08B172B6FEE70220C101D6
:101D300003911021009004910A900121CDE90B013B
:101D40000A210D910721CDE90E1010906846FFF78A
:101D5000E7F808B172B6FEE70F2011900320129049
:101D60000020139014901590042111A8FEF7C0FFD5
:101D7000002801D072B6FEE717B000BD0248016826
:101D800041F470010160704788ED00E000F04CBB49
:101D900090F82410C90706D001684A68836A22F4C3
:101DA00000321A434A6090F82410890706D501686A
:101DB0004A68C36A22F480321A434A6090F82410B9
:101DC000490706D501684A68036B22F480221A434A
:101DD0004A6090F82410090706D501684A68436BE9
:101DE00022F400421A434A6090F82410C90606D52E
:101DF00001688A68836B22F480521A438A6090F8E3
:101E00002410890606D501688A68C36B22F4005243
:101E10001A438A6090F82410490611D501684A686F
:101E2000036C22F480121A434A60016CB1F5801FE2
:101E300006D101684A68436C22F4C0021A434A6022
:101E400090F82410090606D501684A68806C22F4CF
:101E5000002202434A607047F8B500260446C0F8E5
:101E60008060FEF795FC0546206800686FF07E47AD
:101E7000000708D52B4600224FF40011204600979A
:101E800000F066FA60B92068006840070AD52B4662
:101E900000224FF480012046009700F059FA08B163
:101EA0000320F8BD2020A067E067266684F87460F0
:101EB0000020F8BD10B5806A0021A0F85A10A0F8E3
:101EC0005210FFF7CFFA10BD016851E8002F22F43D
:101ED000907241E80023002BF6D10168083151E8E7
:101EE000002F22F0010241E80023002BF5D1016E02
:101EF000012908D1026852E8001F21F0100142E8D0
:101F00000013002BF6D12021C16700210166416634
:101F1000704710B5B0F85C20C36F0168222B04D065
:101F2000088B40F00800088310BD898C436D114078
:101F30001980416D891C4165B0F85A10491EA0F8FE
:101F40005A10B0F85A100029EED1026852E8001F6A
:101F500021F4907142E80013002BF6D1016808319A
:101F600051E8002F22F0010241E80023002BF5D1B7
:101F70002021C16700214166026E012A02D0FFF7CD
:101F800063FC10BD0166026852E8001F21F01001D9
:101F900042E80013002BF6D10168CA69D243D20689
:101FA00001D410220A62B0F85810FFF759FA10BD98
:101FB00010B5B0F85C20C36F0168222B04D0088BE9
:101FC00040F00800088310BD898C1140426D1170EB
:101FD000416D491C4165B0F85A10491EA0F85A10CD
:101FE000B0F85A100029EED1026852E8001F21F41F
:101FF000907142E80013002BF6D10168083151E8D6
:10200000002F22F0010241E80023002BF5D120210E
:10201000C16700214166026E012A02D0FFF714FC5D
:1020200010BD0166026852E8001F21F0100142E86D
:102030000013002BF6D10168CA69D243D20601D43D
:1020400010220A62B0F85810FFF70AFA10BD00001B
:102050002DE9F0410446016880682269E369104374
:10206000626900251A431043814F0A68814B1A4068
:1020700002430A6020684168E26821F4405111433C
:1020800041602168A069B94201D0226A10438A6880
:1020900022F4306202438A607749226877488A4294
:1020A0000DD1D0F8880010F0030006D0012866D0CA
:1020B000022854D0032851D163E001204FE0704939
:1020C0008A420BD1D0F8880010F00C0047D00428C9
:1020D00045D0082851D00C2840D152E069498A42A5
:1020E0000BD1D0F8880010F0300038D0102846D03E
:1020F000202842D0302831D143E063498A420BD1B5
:10210000D0F8880010F0C00029D0402837D08028AF
:1021100033D0C02822D134E05C498A420ED1D0F8B5
:10212000880010F440701AD0B0F5807F27D0B0F549
:10213000007F22D0B0F5407F10D122E0BA420DD10D
:10214000D0F8880010F4406009D0B0F5806F16D048
:10215000B0F5006F11D0B0F5406F12D010204C498F
:1021600000264FF40043BA422ED160B102280DD0B0
:1021700004280DD008286FD10EE00220EFE70420DC
:10218000EDE70820EBE7FEF755FE03E00B4603E022
:10219000FEF774FE030060D0626802EB42009842D2
:1021A0005AD8B3EB023F57D8190E1B025008181823
:1021B00071410023FEF706F8364AA0F540719142BE
:1021C0004AD82168C86048E0E2694FF6EF779A4242
:1021D00027D1092840D2DFE800F005080D3F213F54
:1021E0003F3F0E00FEF726FE01E0FEF735FE03003E
:1021F00001D132E00B466068590001EB5001B1FBA0
:10220000F0F0A0F11001B94226D84FF6F07101406C
:10221000C0F3420001432068C1601EE0FEF72EFEBD
:10222000E5E7092818D2DFE800F005080D171D17AB
:1022300017170E00FEF7FEFD01E0FEF70DFE03008E
:1022400001D10AE00B46606803EB5001B1FBF0F0EE
:10225000A0F11001B94208D9012566662846A66694
:10226000BDE8F081FEF70AFEE9E780B2A9E70000C9
:1022700000800040F369FFEF003801400010024089
:102280000044004000480040004C00400050004026
:102290000024F400FFFC0F0030B54165A0F8582081
:1022A000A0F85A200022426681684FF48055FF232F
:1022B000A94204D1016971BB40F2FF1131E07F24D2
:1022C00039B3B1F1805F29D0A0F85C20C0F880203C
:1022D0002221C1670168083151E8003F43F0010342
:1022E00041E80034002CF5D18168A94201D101698F
:1022F000E9B11549416680F874200169C9B10268E5
:1023000052E8001F41F4907142E80013002BF6D10F
:1023100018E0016941B9A0F85C30D7E7016919B14B
:102320003F21A0F85C10D1E7A0F85C40CEE7074958
:10233000E0E7026852E8001F41F0200142E8001384
:10234000002BF6D1002030BDB11F0008131F00087C
:102350002DE9F0479A4617460E4604464FF000090D
:102360004FF02008089D4AE0681C48D0FEF710FA9C
:10237000A0EB0A00A8422AD84DB32068016849079B
:102380003DD5C069C043000539D421684FF40060D1
:102390000862206850E8001F21F4D07140E8001264
:1023A000002AF6D12068083050E8001F21F0010112
:1023B00040E80012002AF5D1C4F87880C4F87C8087
:1023C000C4F8808084F874900320BDE8F087216809
:1023D00051E8000F20F4D07041E80002002AF6D145
:1023E0002068083050E8001F21F0010140E8001289
:1023F000002AF5D1C4F87880C4F87C80E2E7206830
:10240000C06936EA000004D00020B842ACD00020F9
:10241000DBE70120F9E700000148FFF729B80000D9
:10242000607D0020FEE700002DE9F05F0903D2B2D5
:1024300041EA0211FE4DDFF8FC83FF4E89B24FF4F2
:1024400080534FF400694FF4004A4FF090444FF42A
:10245000807B4FF6FF7709287ED2DFE800F07D050C
:102460003E80BBFBF9F8F700A8F8001001229B465C
:1024700019462E462846FEF786F90122A246114645
:102480005046FEF780F9002201212046FEF77BF935
:10249000EA4D0024012204212846FEF774F9B8F819
:1024A000000010F4004F01D0012200E00022494654
:1024B0003046FEF768F9002204212846FEF763F94A
:1024C000B8F8000007EA4000A8F80000641C102CCF
:1024D000E0DB012211465046F0E0A8F800104FF46E
:1024E000005901224946D248FEF74DF901228021C8
:1024F000B34635463046FEF746F90022802128468D
:10250000FEF741F94E46A14644460025B846012251
:1025100031464F464846FEF736F9208810F4004F02
:1025200001D0012200E0002251463846FEF72BF987
:10253000002231463846FEF726F9218808EA410094
:1025400020806D1C102DE2DB012280215846FEF711
:102550001AF90022314600E074E1B54828E1A8F8F4
:102560000010DFF8DCB2012211465846FEF70BF9E5
:10257000012251462846FEF706F900225146284618
:10258000FEF701F9A9460026454601220221204610
:10259000FEF7F9F8288810F4004F01D0012200E07E
:1025A00000224FF480414846FEF7EDF80022022158
:1025B0002046FEF7E8F8298807EA41002880761CC3
:1025C000102EE2DB012251464846FEF7DCF80022DD
:1025D0000121ECE0A8F8001001221146B146304676
:1025E000FEF7D1F8012208212846FEF7CCF8002298
:1025F00008212846FEF7C7F8914E00240122042145
:102600002846FEF7C0F8B8F8000010F4004F01D0DB
:10261000012200E0002202213046FEF7B4F8002239
:1026200004212846FEF7AFF8B8F8000007EA40009A
:10263000A8F80000641C102CE0DB012208212846C9
:10264000FEF7A1F8002201214846B1E0B4E072E0B3
:102650003AE0FFE7A8F80010012259463046FEF79D
:1026600092F8012220212846FEF78DF80022202131
:102670002846FEF788F80024012240212846FEF76C
:1026800082F8B8F8000010F4004F01D0012200E0F9
:10269000002259462846FEF776F8002240212846B7
:1026A000FEF771F8B8F8000007EA4000A8F800004B
:1026B000641C102CE0DB012220212846FEF763F881
:1026C00000225946304673E0A8F8001001229A46CD
:1026D00019463046FEF757F801224D464946204636
:1026E000FEF751F8002229462046FEF74CF8002557
:1026F000012240212046FEF746F8B8F8000010F409
:10270000004F01D0012200E0002251462046FEF792
:102710003AF8002240212046FEF735F8B8F80000CC
:1027200007EA4000A8F800006D1C102DE0DB012234
:102730004946204676E0A8F8001001225102A3463F
:102740002046FEF720F801228021AA462C46284682
:10275000FEF719F8002280212046FEF714F84446BF
:102760000025B84601224F4649463046FEF70BF891
:10277000208810F4004F01D0012200E00022402107
:102780003046FEF700F8002239463046FDF7FBFFE1
:10279000218808EA410020806D1C102DE2DB012217
:1027A00080215046FDF7EFFF00224FF4007158469C
:1027B00000F04AB8FDF7E7BFA8F800100122514623
:1027C0003046FDF7E0FF012202213046FDF7DBFF36
:1027D000002202213046FDF7D6FFA1464446B84606
:1027E00000254FF48067012239463046FDF7CBFFC4
:1027F000208810F4004F01D0012200E00022594649
:102800004846FDF7C0FF002239463046FDF7BBFFC2
:10281000218808EA410020806D1C102DE3DB012295
:1028200002213046FDF7AFFF002251464AE7000083
:10283000000800481800002000040048000C004870
:10284000001C004800F005B830BCBDE8C05FFFF7D1
:10285000B1BF30BCBDE8C09F0907090E002804DBEA
:1028600000F1E02080F80014704700F00F0000F144
:10287000E02080F8141D704702E008C8121F08C14C
:10288000002AFAD170477047002001E001C1121FF1
:10289000002AFBD170470000FDF788FFFFF735FAEB
:1028A000FFF760F8FFF7B4F8FDF706FD01222449B1
:1028B0002448FEF79FFF224C224EE41E0127413E92
:1028C00027700025657020786178C200083A0A44B4
:1028D000B25CFFF75BFA6078401CC0B260700728FA
:1028E000F1D92078401CC0B220700828EAD9A57020
:1028F000A0780128FCD1134EE580843627706570DE
:1029000020786178C200E388083A0A4406EB831312
:102910009A5CFFF73BFA6078401CC0B260700728F1
:10292000EED92078401CC0B220700828E7D9E08892
:10293000401C80B2E080B0F5FA7FDFD3D7E700001B
:1029400003000020607D0020000000000000000067
:102950000102030406070809A0860100400D0300D8
:10296000801A060000350C0040420F0080841E00D3
:1029700000093D0000127A000024F40000366E01C8
:102980000048E801006CDC020000000001020304C2
:10299000B0290008000000201C0000007828000872
:1029A000CC2900081C000020CCFE0000882800086C
:1029B0000000000000000000010000001000000006
:0C29C0000000000000093D0000000000C5
:040000050800018965
:00000001FF
